:100000000C9462000C948A000C948A000C948A0070
:100010000C948A000C948A000C948A000C948A0038
:100020000C948A000C948A000C948A000C948A0028
:100030000C948A000C948A000C948A000C948A0018
:100040000C948C030C948A000C945A030C94340383
:100050000C948A000C948A000C948A000C948A00F8
:100060000C948A000C948A000000000024002700F1
:100070002A0000000000250028002B0000000000DE
:1000800023002600290004040404040404040202DA
:100090000202020203030303030301020408102007
:1000A0004080010204081020010204081020000012
:1000B0000008000201000003040700000000000027
:1000C0000000D60311241FBECFEFD8E0DEBFCDBFA6
:1000D00011E0A0E0B1E0EEE9FFE002C005900D9272
:1000E000A231B107D9F721E0A2E1B1E001C01D9230
:1000F000A23EB207E1F710E0C2E6D0E004C02197CB
:10010000FE010E94C707C136D107C9F70E945704F4
:100110000C94CD070C940000AF92BF92CF92DF9267
:10012000EF92FF920F931F93CF93DF936C017B01AC
:100130008B01040F151FEB015E01AE18BF08C0173D
:10014000D10759F06991D601ED91FC910190F081B0
:10015000E02DC6010995892B79F7C501DF91CF9173
:100160001F910F91FF90EF90DF90CF90BF90AF90D5
:100170000895FC01538D448D252F30E0842F90E0AD
:10018000821B930B541710F0CF9608950197089592
:10019000FC01918D828D981761F0A28DAE0FBF2F5B
:1001A000B11D5D968C91928D9F5F9F73928F90E0B1
:1001B00008958FEF9FEF0895FC01918D828D981720
:1001C00031F0828DE80FF11D858D90E008958FEF5D
:1001D0009FEF0895FC01918D228D892F90E0805C26
:1001E0009F4F821B91098F739927089581E391E0B6
:1001F0000E94EA0021E0892B09F420E0822F089573
:1002000080E090E0892B29F00E94F60081110C9487
:1002100000000895FC01A48DA80FB92FB11DA35AA9
:10022000BF4F2C91848D90E001968F739927848F16
:10023000A689B7892C93A089B1898C918370806439
:100240008C93938D848D981306C00288F389E02DDA
:1002500080818F7D80830895EF92FF920F931F938B
:10026000CF93DF93EC0181E0888F9B8D8C8D981369
:100270001AC0E889F989808185FF15C09FB7F89475
:10028000EE89FF896083E889F989808183708064C1
:1002900080839FBF81E090E0DF91CF911F910F910C
:1002A000FF90EF900895F62E0B8D10E00F5F1F4F1B
:1002B0000F731127E02E8C8D8E110CC00FB607FC2A
:1002C000FACFE889F989808185FFF5CFCE010E94B8
:1002D0000A01F1CFEB8DEC0FFD2FF11DE35AFF4F1B
:1002E000F0829FB7F8940B8FEA89FB898081806246
:1002F000CFCFCF93DF93EC01888D8823B9F0AA8903
:10030000BB89E889F9898C9185FD03C0808186FDD0
:100310000DC00FB607FCF7CF8C9185FFF2CF80811F
:1003200085FFEDCFCE010E940A01E9CFDF91CF9189
:100330000895833081F028F4813099F08230A9F05B
:1003400008958730A9F08830C9F08430B1F48091E5
:1003500080008F7D03C0809180008F778093800024
:10036000089584B58F7784BD089584B58F7DFBCFC4
:100370008091B0008F778093B00008958091B00095
:100380008F7DF9CFCF93DF93282F30E0F901E2552D
:10039000FF4F8491F901E656FF4FD491F901EA57D6
:1003A000FF4FC491CC23A1F081110E949901EC2F41
:1003B000F0E0EE0FFF1FE458FF4FA591B491EC91D0
:1003C000ED2381E090E009F480E0DF91CF91089582
:1003D00080E090E0FACF1F93CF93DF93282F30E097
:1003E000F901E255FF4F8491F901E656FF4FD49190
:1003F000F901EA57FF4FC491CC23A9F0162F8111C0
:100400000E949901EC2FF0E0EE0FFF1FEE58FF4F16
:10041000A591B4918FB7F894EC91111108C0D095C3
:10042000DE23DC938FBFDF91CF911F910895DE2BE8
:10043000F8CFCF93DF9390E0FC01E656FF4F249175
:100440008A579F4FFC0184918823D1F090E0880F58
:10045000991FFC01E859FF4FA591B491FC01EE589A
:10046000FF4FC591D491623071F49FB7F8943C91DD
:10047000822F809583238C93E8812E2B28839FBF26
:10048000DF91CF9108958FB7F894EC912E2B2C9398
:100490008FBFF6CF1F93CF93DF93182FEB0161E04F
:1004A0000E941902209739F460E0812FDF91CF91EB
:1004B0001F910C94EB01CF3FD10511F461E0F5CF12
:1004C000E12FF0E0E255FF4FE491E33031F140F4E9
:1004D000E130B1F0E230E1F0C038D1057CF7E4CF93
:1004E000E73029F1E83059F1E430B1F7809180002C
:1004F000806280938000D0938B00C0938A0004C0F8
:1005000084B5806884BDC7BDDF91CF911F910895E8
:1005100084B5806284BDC8BDF7CF809180008068BB
:1005200080938000D0938900C0938800EDCF8091A4
:10053000B00080688093B000C093B300E5CF809195
:10054000B00080628093B000C093B400DDCF3FB7AD
:10055000F8948091170190911801A0911901B09120
:100560001A0126B5A89B05C02F3F19F00196A11DC1
:10057000B11D3FBFBA2FA92F982F8827BC01CD01ED
:10058000620F711D811D911D42E0660F771F881F4C
:10059000991F4A95D1F708958F929F92AF92BF927B
:1005A000CF92DF92EF92FF924B015C010E94A70273
:1005B0006B017C010E94A7026C197D098E099F09BD
:1005C000683E734081059105A8F321E0821A9108E5
:1005D000A108B10888EEC80E83E0D81EE11CF11C0A
:1005E00081149104A104B10429F7FF90EF90DF90EA
:1005F000CF90BF90AF909F908F900895EF92FF9211
:100600000F931F93CF93DF93EC017B0161E088850B
:100610000E94EB018E819F81E89E8001E99E100D72
:10062000F89E100D112417FD12C061E088810E9410
:10063000EB0160E08A810E94EB01B8018C81DF91BF
:10064000CF911F910F91FF90EF900C944A0260E0C0
:1006500088810E94EB0161E08A810E94EB0166279C
:100660007727601B710BEACF1F920F920FB60F9284
:1006700011242F933F934F935F936F937F938F93A7
:100680009F93AF93BF93EF93FF9381E391E00E9419
:100690000A01FF91EF91BF91AF919F918F917F914F
:1006A0006F915F914F913F912F910F900FBE0F90DF
:1006B0001F9018951F920F920FB60F9211242F932F
:1006C0008F939F93EF93FF93E0914101F09142014B
:1006D0008081E0914701F091480182FD1BC090812B
:1006E00080914A018F5F8F7320914B01821741F0F7
:1006F000E0914A01F0E0EF5CFE4F958F80934A0154
:10070000FF91EF919F918F912F910F900FBE0F90BE
:100710001F9018958081F4CF1F920F920FB60F9201
:1007200011242F933F938F939F93AF93BF93809107
:10073000130190911401A0911501B091160130910F
:10074000120123E0230F2D3758F50196A11DB11D8D
:10075000209312018093130190931401A09315012B
:10076000B09316018091170190911801A091190181
:10077000B0911A010196A11DB11D809317019093AC
:100780001801A0931901B0931A01BF91AF919F91E5
:100790008F913F912F910F900FBE0F901F90189542
:1007A00026E8230F0296A11DB11DD2CFEF92FF9232
:1007B0000F931F93CF93DF93E1E3F1E01382128253
:1007C00088EE93E0A0E0B0E084839583A683B783AE
:1007D00084E091E09183808385EC90E09587848725
:1007E00084EC90E09787868780EC90E0918B808BFB
:1007F00081EC90E0938B828B82EC90E0958B848BE4
:1008000086EC90E0978B868B118E128E138E148E51
:10081000C8EDD1E084E090E09983888383E090E0A4
:100820009B838A8389E090E09D838C8385E0E82E1A
:10083000F12CF986E88601E010E01F830E8361E069
:1008400084E00E94190261E08A810E94190261E03D
:100850008C810E94190261E088850E941902CEEC09
:10086000D1E086E090E09983888387E090E09B83E5
:100870008A838AE090E09D838C83F986E8861F83D3
:100880000E8361E086E00E94190261E08A810E9485
:10089000190261E08C810E94190261E08885DF9174
:1008A000CF911F910F91FF90EF900C9419027894C3
:1008B00084B5826084BD84B5816084BD85B5826065
:1008C00085BD85B5816085BD80916E008160809316
:1008D0006E0010928100809181008260809381007F
:1008E000809181008160809381008091800081608F
:1008F000809380008091B10084608093B1008091EA
:10090000B00081608093B00080917A008460809311
:100910007A0080917A00826080937A0080917A00D8
:10092000816080937A0080917A00806880937A0059
:100930001092C100E0914101F091420182E0808378
:10094000E0913D01F0913E011082E0913F01F09174
:1009500040018FEC808310924901E0914501F091B4
:10096000460186E08083E0914301F091440180815B
:1009700080618083E0914301F0914401808188602F
:100980008083E0914301F0914401808180688083FD
:10099000E0914301F091440180818F7D808362E08A
:1009A0008BE00E94190262E08CE00E94190261E073
:1009B0008DE00E94190280E0282E80E0382ECFEFD3
:1009C000D0E08BE00E94C201892BD9F768EE73E07A
:1009D00080E090E00E94CC028EE00E94C2014C01B7
:1009E00090931C0180931B018FE00E94C2015C0167
:1009F00090931E0180931D0180E10E94C2016C0151
:100A00009093200180931F0181E10E94C2018C011B
:100A1000909322018093210182E10E94C201909370
:100A20002401809323018114910409F0EAC0A114E8
:100A3000B10409F0C7C0CD2841F40115110509F032
:100A4000B3C0019711F404E010E0B801110F880B56
:100A5000990B0E94CE066B017C01209129013091F7
:100A60002A0140912B0150912C010E942A064B0132
:100A70005C018092290190922A01A0922B01B092F0
:100A80002C012091250130912601409127015091A0
:100A90002801C701B6010E94290620E030E0A90123
:100AA0000E945A072B013C0120E030E0A901C5015A
:100AB000B4010E945A07A70196010E942A069B01D1
:100AC000AC01C301B2010E942A064B015C01C09235
:100AD0002501D0922601E0922701F0922801AC0175
:100AE0009B0160E070E084EB92E40E9429060E9482
:100AF00096067B017093300160932F0120E030E077
:100B000044EB52E4C501B4010E942A060E949606F5
:100B10009B0170932E0160932D018FEFE816F10475
:100B200029F024F0D0933001C0932F0180912F0140
:100B30009091300197FF04C01092300110922F0164
:100B40002F3F310529F024F0D0932E01C0932D01C1
:100B500080912D0190912E0197FF04C010922E01DB
:100B600010922D0160912F017091300188ED91E07C
:100B70000E94FE0260912D0170912E018EEC91E099
:100B80000E94FE0264E670E080E090E00E94CC02E9
:100B90002114310409F415CF0E94F600882309F4CA
:100BA00010CF0E9400000DCF0130110509F04DCF8C
:100BB0008130910509F44AC0892B09F046CF02E043
:100BC00010E043CFAA94AB2809F03FCF21E0C21632
:100BD000D10451F40115110509F037CF892B09F023
:100BE00034CF0FEF1FEF31CFCD2809F02ECF0115F5
:100BF000110509F02ACF892B09F027CF0EEF1FEF3F
:100C000024CF8A94892809F020CF21E0A216B104CC
:100C100069F4CD2809F019CF0115110509F015CF98
:100C2000892B09F012CF0DEF1FEF0FCFAB2809F082
:100C30000CCFCD2809F009CF0115110509F005CF1A
:100C4000892B09F002CF0CEF1FEFFFCE03E010E07D
:100C5000FCCE5058BB27AA270E9441060C942007BF
:100C60000E94120738F00E94190720F039F49F3FC4
:100C700019F426F40C940F070EF4E095E7FB0C949E
:100C80000907E92F0E94310758F3BA176207730763
:100C90008407950720F079F4A6F50C9453070EF419
:100CA000E0950B2EBA2FA02D0B01B90190010C017C
:100CB000CA01A0011124FF27591B99F0593F50F494
:100CC000503E68F11A16F040A22F232F342F4427EC
:100CD000585FF3CF469537952795A795F0405395E4
:100CE000C9F77EF41F16BA0B620B730B840BBAF0B4
:100CF0009150A1F0FF0FBB1F661F771F881FC2F71F
:100D00000EC0BA0F621F731F841F48F48795779532
:100D10006795B795F7959E3F08F0B0CF9395880FEC
:100D200008F09927EE0F9795879508950E949D06E4
:100D30006894B1110C94540708950E94390788F003
:100D40009F5798F0B92F9927B751B0F0E1F0660F8F
:100D5000771F881F991F1AF0BA95C9F714C0B130D0
:100D600091F00E945307B1E008950C945307672F48
:100D7000782F8827B85F39F0B93FCCF386957795FF
:100D80006795B395D9F73EF49095809570956195E8
:100D90007F4F8F4F9F4F0895E89409C097FB3EF413
:100DA00090958095709561957F4F8F4F9F4F9923B8
:100DB000A9F0F92F96E9BB279395F6958795779536
:100DC0006795B795F111F8CFFAF4BB0F11F460FFF6
:100DD0001BC06F5F7F4F8F4F9F4F16C0882311F04E
:100DE00096E911C0772321F09EE8872F762F05C062
:100DF000662371F096E8862F70E060E02AF09A95FD
:100E0000660F771F881FDAF7880F9695879597F9F1
:100E1000089597F99F6780E870E060E008959FEF7C
:100E200080EC089500240A94161617061806090681
:100E3000089500240A941216130614060506089550
:100E4000092E0394000C11F4882352F0BB0F40F4D8
:100E5000BF2B11F460FF04C06F5F7F4F8F4F9F4F18
:100E6000089557FD9058440F551F59F05F3F71F09A
:100E70004795880F97FB991F61F09F3F79F0879501
:100E80000895121613061406551FF2CF4695F1DF8A
:100E900008C0161617061806991FF1CF869571051A
:100EA000610508940895E894BB2766277727CB014E
:100EB00097F908950E946D070C9420070E9412076D
:100EC00038F00E94190720F0952311F00C940907BF
:100ED0000C940F0711240C9454070E94310770F3EF
:100EE000959FC1F3950F50E0551F629FF001729FCF
:100EF000BB27F00DB11D639FAA27F00DB11DAA1FDE
:100F0000649F6627B00DA11D661F829F2227B00D2A
:100F1000A11D621F739FB00DA11D621F839FA00DB5
:100F2000611D221F749F3327A00D611D231F849F05
:100F3000600D211D822F762F6A2F11249F5750405C
:100F40009AF0F1F088234AF0EE0FFF1FBB1F661FD7
:100F5000771F881F91505040A9F79E3F510580F0A0
:100F60000C9409070C9454075F3FE4F3983ED4F3C4
:100F7000869577956795B795F795E7959F5FC1F744
:100F8000FE2B880F911D9695879597F90895EE0F82
:0E0F9000FF1F0590F491E02D0994F894FFCF17
:100F9E00000000002C018C00B9007901EA00C800A5
:020FAE00DC0065
:00000001FF
